{
  "contractName": "chainMaps",
  "abi": [
    {
      "inputs": [],
      "payable": false,
      "stateMutability": "nonpayable",
      "type": "constructor",
      "signature": "constructor"
    },
    {
      "anonymous": false,
      "inputs": [
        {
          "indexed": true,
          "name": "owner",
          "type": "address"
        },
        {
          "indexed": false,
          "name": "accountIdName",
          "type": "string"
        },
        {
          "indexed": false,
          "name": "result",
          "type": "string"
        }
      ],
      "name": "AccountSubmit",
      "type": "event",
      "signature": "0xbd2084e422fc10df81bbda41880bba993bf3a950ef03bb5c8e2c9d28f4fc1d89"
    },
    {
      "anonymous": false,
      "inputs": [
        {
          "indexed": false,
          "name": "owner",
          "type": "address"
        },
        {
          "indexed": false,
          "name": "accountIdName",
          "type": "string"
        },
        {
          "indexed": false,
          "name": "placeTtIndex",
          "type": "uint256"
        },
        {
          "indexed": false,
          "name": "result",
          "type": "string"
        }
      ],
      "name": "PlaceSubmit",
      "type": "event",
      "signature": "0x6f65d46a2fed67c68f4cce828e861e7f82e82f6e805e066a3b015f53ed69ce0c"
    },
    {
      "constant": false,
      "inputs": [
        {
          "name": "accountIdName",
          "type": "string"
        },
        {
          "name": "desc",
          "type": "string"
        },
        {
          "name": "extraData",
          "type": "string"
        },
        {
          "name": "clusterize",
          "type": "bool"
        },
        {
          "name": "lat",
          "type": "uint32"
        },
        {
          "name": "lng",
          "type": "uint32"
        },
        {
          "name": "zoom",
          "type": "uint8"
        }
      ],
      "name": "setAccount",
      "outputs": [],
      "payable": true,
      "stateMutability": "payable",
      "type": "function",
      "signature": "0xa01ecd6b"
    },
    {
      "constant": false,
      "inputs": [
        {
          "name": "accountIdName",
          "type": "string"
        }
      ],
      "name": "getAccount",
      "outputs": [
        {
          "name": "owner",
          "type": "string"
        },
        {
          "name": "desc",
          "type": "string"
        },
        {
          "name": "extraData",
          "type": "string"
        },
        {
          "name": "",
          "type": "bool"
        },
        {
          "name": "lat",
          "type": "uint32"
        },
        {
          "name": "lng",
          "type": "uint32"
        },
        {
          "name": "zoom",
          "type": "uint8"
        },
        {
          "name": "placesNumber",
          "type": "uint256"
        }
      ],
      "payable": false,
      "stateMutability": "nonpayable",
      "type": "function",
      "signature": "0x4518f6b3"
    },
    {
      "constant": false,
      "inputs": [
        {
          "name": "accountIdName",
          "type": "string"
        },
        {
          "name": "ttIndex",
          "type": "uint256"
        },
        {
          "name": "title",
          "type": "string"
        },
        {
          "name": "desc",
          "type": "string"
        },
        {
          "name": "imageLink",
          "type": "string"
        },
        {
          "name": "category",
          "type": "string"
        },
        {
          "name": "lat",
          "type": "uint32"
        },
        {
          "name": "lng",
          "type": "uint32"
        },
        {
          "name": "zoom",
          "type": "uint8"
        }
      ],
      "name": "setPlace",
      "outputs": [
        {
          "name": "",
          "type": "uint256"
        }
      ],
      "payable": true,
      "stateMutability": "payable",
      "type": "function",
      "signature": "0xe78493dc"
    },
    {
      "constant": false,
      "inputs": [
        {
          "name": "accountIdName",
          "type": "string"
        },
        {
          "name": "ttIndex",
          "type": "uint256"
        }
      ],
      "name": "getPlace",
      "outputs": [
        {
          "name": "title",
          "type": "string"
        },
        {
          "name": "desc",
          "type": "string"
        },
        {
          "name": "imageLink",
          "type": "string"
        },
        {
          "name": "category",
          "type": "string"
        },
        {
          "name": "lat",
          "type": "uint32"
        },
        {
          "name": "lng",
          "type": "uint32"
        },
        {
          "name": "zoom",
          "type": "uint8"
        }
      ],
      "payable": false,
      "stateMutability": "nonpayable",
      "type": "function",
      "signature": "0x03d6f8e3"
    },
    {
      "constant": false,
      "inputs": [
        {
          "name": "accountIdName",
          "type": "string"
        },
        {
          "name": "ttIndex",
          "type": "uint256"
        }
      ],
      "name": "deletePlace",
      "outputs": [],
      "payable": true,
      "stateMutability": "payable",
      "type": "function",
      "signature": "0x4f93fee7"
    },
    {
      "constant": false,
      "inputs": [
        {
          "name": "accountIdName",
          "type": "string"
        }
      ],
      "name": "listPlaceIndex",
      "outputs": [
        {
          "name": "placesIndex",
          "type": "uint256[]"
        }
      ],
      "payable": false,
      "stateMutability": "nonpayable",
      "type": "function",
      "signature": "0xd555b07b"
    },
    {
      "constant": false,
      "inputs": [
        {
          "name": "accountIdName",
          "type": "string"
        }
      ],
      "name": "accountHash",
      "outputs": [
        {
          "name": "",
          "type": "bytes32"
        }
      ],
      "payable": false,
      "stateMutability": "nonpayable",
      "type": "function",
      "signature": "0xe6557794"
    },
    {
      "constant": false,
      "inputs": [
        {
          "name": "accountIdName",
          "type": "string"
        }
      ],
      "name": "accountExist",
      "outputs": [
        {
          "name": "",
          "type": "bool"
        }
      ],
      "payable": false,
      "stateMutability": "nonpayable",
      "type": "function",
      "signature": "0x36980d3a"
    },
    {
      "constant": false,
      "inputs": [
        {
          "name": "accountIdName",
          "type": "string"
        }
      ],
      "name": "isOwner",
      "outputs": [
        {
          "name": "",
          "type": "bool"
        }
      ],
      "payable": false,
      "stateMutability": "nonpayable",
      "type": "function",
      "signature": "0xb85e943d"
    },
    {
      "constant": false,
      "inputs": [
        {
          "name": "owner",
          "type": "address"
        },
        {
          "name": "accountIdName",
          "type": "string"
        }
      ],
      "name": "addressIsOwner",
      "outputs": [
        {
          "name": "",
          "type": "bool"
        }
      ],
      "payable": false,
      "stateMutability": "nonpayable",
      "type": "function",
      "signature": "0x5444903e"
    },
    {
      "constant": false,
      "inputs": [],
      "name": "withdraw",
      "outputs": [],
      "payable": false,
      "stateMutability": "nonpayable",
      "type": "function",
      "signature": "0x3ccfd60b"
    }
  ],
  "bytecode": "0x608060405234801561001057600080fd5b5033600160006101000a81548173ffffffffffffffffffffffffffffffffffffffff021916908373ffffffffffffffffffffffffffffffffffffffff160217905550612d21806100616000396000f3fe6080604052600436106100af576000357c0100000000000000000000000000000000000000000000000000000000900463ffffffff16806303d6f8e3146100b457806336980d3a146103765780633ccfd60b146104565780634518f6b31461046d5780634f93fee7146106cb5780635444903e14610790578063a01ecd6b14610890578063b85e943d14610ab2578063d555b07b14610b92578063e655779414610caf578063e78493dc14610d8b575b600080fd5b3480156100c057600080fd5b50610184600480360360408110156100d757600080fd5b81019080803590602001906401000000008111156100f457600080fd5b82018360208201111561010657600080fd5b8035906020019184600183028401116401000000008311171561012857600080fd5b91908080601f016020809104026020016040519081016040528093929190818152602001838380828437600081840152601f19601f820116905080830192505050505050509192919290803590602001909291905050506110ee565b60405180806020018060200180602001806020018863ffffffff1663ffffffff1681526020018763ffffffff1663ffffffff1681526020018660ff1660ff16815260200185810385528c818151815260200191508051906020019080838360005b838110156102005780820151818401526020810190506101e5565b50505050905090810190601f16801561022d5780820380516001836020036101000a031916815260200191505b5085810384528b818151815260200191508051906020019080838360005b8381101561026657808201518184015260208101905061024b565b50505050905090810190601f1680156102935780820380516001836020036101000a031916815260200191505b5085810383528a818151815260200191508051906020019080838360005b838110156102cc5780820151818401526020810190506102b1565b50505050905090810190601f1680156102f95780820380516001836020036101000a031916815260200191505b50858103825289818151815260200191508051906020019080838360005b83811015610332578082015181840152602081019050610317565b50505050905090810190601f16801561035f5780820380516001836020036101000a031916815260200191505b509b50505050505050505050505060405180910390f35b34801561038257600080fd5b5061043c6004803603602081101561039957600080fd5b81019080803590602001906401000000008111156103b657600080fd5b8201836020820111156103c857600080fd5b803590602001918460018302840111640100000000831117156103ea57600080fd5b91908080601f016020809104026020016040519081016040528093929190818152602001838380828437600081840152601f19601f8201169050808301925050505050505091929192905050506114ad565b604051808215151515815260200191505060405180910390f35b34801561046257600080fd5b5061046b6114f5565b005b34801561047957600080fd5b506105336004803603602081101561049057600080fd5b81019080803590602001906401000000008111156104ad57600080fd5b8201836020820111156104bf57600080fd5b803590602001918460018302840111640100000000831117156104e157600080fd5b91908080601f016020809104026020016040519081016040528093929190818152602001838380828437600081840152601f19601f820116905080830192505050505050509192919290505050611662565b60405180806020018060200180602001891515151581526020018863ffffffff1663ffffffff1681526020018763ffffffff1663ffffffff1681526020018660ff1660ff16815260200185815260200184810384528c818151815260200191508051906020019080838360005b838110156105bb5780820151818401526020810190506105a0565b50505050905090810190601f1680156105e85780820380516001836020036101000a031916815260200191505b5084810383528b818151815260200191508051906020019080838360005b83811015610621578082015181840152602081019050610606565b50505050905090810190601f16801561064e5780820380516001836020036101000a031916815260200191505b5084810382528a818151815260200191508051906020019080838360005b8381101561068757808201518184015260208101905061066c565b50505050905090810190601f1680156106b45780820380516001836020036101000a031916815260200191505b509b50505050505050505050505060405180910390f35b61078e600480360360408110156106e157600080fd5b81019080803590602001906401000000008111156106fe57600080fd5b82018360208201111561071057600080fd5b8035906020019184600183028401116401000000008311171561073257600080fd5b91908080601f016020809104026020016040519081016040528093929190818152602001838380828437600081840152601f19601f82011690508083019250505050505050919291929080359060200190929190505050611a56565b005b34801561079c57600080fd5b50610876600480360360408110156107b357600080fd5b81019080803573ffffffffffffffffffffffffffffffffffffffff169060200190929190803590602001906401000000008111156107f057600080fd5b82018360208201111561080257600080fd5b8035906020019184600183028401116401000000008311171561082457600080fd5b91908080601f016020809104026020016040519081016040528093929190818152602001838380828437600081840152601f19601f820116905080830192505050505050509192919290505050611b29565b604051808215151515815260200191505060405180910390f35b610ab0600480360360e08110156108a657600080fd5b81019080803590602001906401000000008111156108c357600080fd5b8201836020820111156108d557600080fd5b803590602001918460018302840111640100000000831117156108f757600080fd5b91908080601f016020809104026020016040519081016040528093929190818152602001838380828437600081840152601f19601f8201169050808301925050505050505091929192908035906020019064010000000081111561095a57600080fd5b82018360208201111561096c57600080fd5b8035906020019184600183028401116401000000008311171561098e57600080fd5b91908080601f016020809104026020016040519081016040528093929190818152602001838380828437600081840152601f19601f820116905080830192505050505050509192919290803590602001906401000000008111156109f157600080fd5b820183602082011115610a0357600080fd5b80359060200191846001830284011164010000000083111715610a2557600080fd5b91908080601f016020809104026020016040519081016040528093929190818152602001838380828437600081840152601f19601f820116905080830192505050505050509192919290803515159060200190929190803563ffffffff169060200190929190803563ffffffff169060200190929190803560ff169060200190929190505050611bac565b005b348015610abe57600080fd5b50610b7860048036036020811015610ad557600080fd5b8101908080359060200190640100000000811115610af257600080fd5b820183602082011115610b0457600080fd5b80359060200191846001830284011164010000000083111715610b2657600080fd5b91908080601f016020809104026020016040519081016040528093929190818152602001838380828437600081840152601f19601f82011690508083019250505050505050919291929050505061225d565b604051808215151515815260200191505060405180910390f35b348015610b9e57600080fd5b50610c5860048036036020811015610bb557600080fd5b8101908080359060200190640100000000811115610bd257600080fd5b820183602082011115610be457600080fd5b80359060200191846001830284011164010000000083111715610c0657600080fd5b91908080601f016020809104026020016040519081016040528093929190818152602001838380828437600081840152601f19601f8201169050808301925050505050505091929192905050506122df565b6040518080602001828103825283818151815260200191508051906020019060200280838360005b83811015610c9b578082015181840152602081019050610c80565b505050509050019250505060405180910390f35b348015610cbb57600080fd5b50610d7560048036036020811015610cd257600080fd5b8101908080359060200190640100000000811115610cef57600080fd5b820183602082011115610d0157600080fd5b80359060200191846001830284011164010000000083111715610d2357600080fd5b91908080601f016020809104026020016040519081016040528093929190818152602001838380828437600081840152601f19601f820116905080830192505050505050509192919290505050612368565b6040518082815260200191505060405180910390f35b6110d86004803603610120811015610da257600080fd5b8101908080359060200190640100000000811115610dbf57600080fd5b820183602082011115610dd157600080fd5b80359060200191846001830284011164010000000083111715610df357600080fd5b91908080601f016020809104026020016040519081016040528093929190818152602001838380828437600081840152601f19601f8201169050808301925050505050505091929192908035906020019092919080359060200190640100000000811115610e6057600080fd5b820183602082011115610e7257600080fd5b80359060200191846001830284011164010000000083111715610e9457600080fd5b91908080601f016020809104026020016040519081016040528093929190818152602001838380828437600081840152601f19601f82011690508083019250505050505050919291929080359060200190640100000000811115610ef757600080fd5b820183602082011115610f0957600080fd5b80359060200191846001830284011164010000000083111715610f2b57600080fd5b91908080601f016020809104026020016040519081016040528093929190818152602001838380828437600081840152601f19601f82011690508083019250505050505050919291929080359060200190640100000000811115610f8e57600080fd5b820183602082011115610fa057600080fd5b80359060200191846001830284011164010000000083111715610fc257600080fd5b91908080601f016020809104026020016040519081016040528093929190818152602001838380828437600081840152601f19601f8201169050808301925050505050505091929192908035906020019064010000000081111561102557600080fd5b82018360208201111561103757600080fd5b8035906020019184600183028401116401000000008311171561105957600080fd5b91908080601f016020809104026020016040519081016040528093929190818152602001838380828437600081840152601f19601f820116905080830192505050505050509192919290803563ffffffff169060200190929190803563ffffffff169060200190929190803560ff169060200190929190505050612379565b6040518082815260200191505060405180910390f35b6060806060806000806000611102896114ad565b156114a05761110f612ab6565b60008061111b8c612368565b815260200190815260200160002060070160008a815260200190815260200160002060a06040519081016040529081600082018054600181600116156101000203166002900480601f0160208091040260200160405190810160405280929190818152602001828054600181600116156101000203166002900480156111e25780601f106111b7576101008083540402835291602001916111e2565b820191906000526020600020905b8154815290600101906020018083116111c557829003601f168201915b50505050508152602001600182018054600181600116156101000203166002900480601f0160208091040260200160405190810160405280929190818152602001828054600181600116156101000203166002900480156112845780601f1061125957610100808354040283529160200191611284565b820191906000526020600020905b81548152906001019060200180831161126757829003601f168201915b50505050508152602001600282018054600181600116156101000203166002900480601f0160208091040260200160405190810160405280929190818152602001828054600181600116156101000203166002900480156113265780601f106112fb57610100808354040283529160200191611326565b820191906000526020600020905b81548152906001019060200180831161130957829003601f168201915b50505050508152602001600382018054600181600116156101000203166002900480601f0160208091040260200160405190810160405280929190818152602001828054600181600116156101000203166002900480156113c85780601f1061139d576101008083540402835291602001916113c8565b820191906000526020600020905b8154815290600101906020018083116113ab57829003601f168201915b5050505050815260200160048201606060405190810160405290816000820160009054906101000a900463ffffffff1663ffffffff1663ffffffff1681526020016000820160049054906101000a900463ffffffff1663ffffffff1663ffffffff1681526020016000820160089054906101000a900460ff1660ff1660ff168152505081525050905080600001518160200151826040015183606001518460800151600001518560800151602001518660800151604001518696508595508494508393509750975097509750975097509750506114a1565b5b92959891949750929550565b6000806114b983612368565b9050600115156000806114cb86612368565b815260200190815260200160002060000160009054906101000a900460ff16151514915050919050565b600160009054906101000a900473ffffffffffffffffffffffffffffffffffffffff1673ffffffffffffffffffffffffffffffffffffffff163373ffffffffffffffffffffffffffffffffffffffff161415156115e0576040517f08c379a00000000000000000000000000000000000000000000000000000000081526004018080602001828103825260228152602001807f4f6e6c79206f776e65722063616e2063616c6c20746869732066756e6374696f81526020017f6e2e00000000000000000000000000000000000000000000000000000000000081525060400191505060405180910390fd5b600160009054906101000a900473ffffffffffffffffffffffffffffffffffffffff1673ffffffffffffffffffffffffffffffffffffffff166108fc3073ffffffffffffffffffffffffffffffffffffffff16319081150290604051600060405180830381858888f1935050505015801561165f573d6000803e3d6000fd5b50565b60608060606000806000806000611678896114ad565b15611a4a57611685612aec565b6000806116918c612368565b815260200190815260200160002061010060405190810160405290816000820160009054906101000a900460ff161515151581526020016000820160019054906101000a900473ffffffffffffffffffffffffffffffffffffffff1673ffffffffffffffffffffffffffffffffffffffff1673ffffffffffffffffffffffffffffffffffffffff168152602001600182018054600181600116156101000203166002900480601f0160208091040260200160405190810160405280929190818152602001828054600181600116156101000203166002900480156117b65780601f1061178b576101008083540402835291602001916117b6565b820191906000526020600020905b81548152906001019060200180831161179957829003601f168201915b50505050508152602001600282018054600181600116156101000203166002900480601f0160208091040260200160405190810160405280929190818152602001828054600181600116156101000203166002900480156118585780601f1061182d57610100808354040283529160200191611858565b820191906000526020600020905b81548152906001019060200180831161183b57829003601f168201915b50505050508152602001600382018054600181600116156101000203166002900480601f0160208091040260200160405190810160405280929190818152602001828054600181600116156101000203166002900480156118fa5780601f106118cf576101008083540402835291602001916118fa565b820191906000526020600020905b8154815290600101906020018083116118dd57829003601f168201915b505050505081526020016004820160009054906101000a900460ff1615151515815260200160058201606060405190810160405290816000820160009054906101000a900463ffffffff1663ffffffff1663ffffffff1681526020016000820160049054906101000a900463ffffffff1663ffffffff1663ffffffff1681526020016000820160089054906101000a900460ff1660ff1660ff16815250508152602001600682018054806020026020016040519081016040528092919081815260200182805480156119eb57602002820191906000526020600020905b8154815260200190600101908083116119d7575b50505050508152505090508060400151816060015182608001518360a001518460c00151600001518560c00151602001518660c00151604001518760e00151518797508696508595509850985098509850985098509850985050611a4b565b5b919395975091939597565b611a5f826114ad565b15611b2557611a6d8261225d565b15611b245760008090505b600080611a8485612368565b815260200190815260200160002060060180549050811015611b225781600080611aad86612368565b815260200190815260200160002060060182815481101515611acb57fe5b90600052602060002001541415611b1557600080611ae885612368565b815260200190815260200160002060060181815481101515611b0657fe5b90600052602060002001600090555b8080600101915050611a78565b505b5b5050565b600080611b3583612368565b9050600080611b4385612368565b815260200190815260200160002060000160019054906101000a900473ffffffffffffffffffffffffffffffffffffffff1673ffffffffffffffffffffffffffffffffffffffff168473ffffffffffffffffffffffffffffffffffffffff161491505092915050565b611bb5876114ad565b15611f2d57611bc38761225d565b15611e3b5786600080611bd58a612368565b81526020019081526020016000206001019080519060200190611bf9929190612b52565b5085600080611c078a612368565b81526020019081526020016000206002019080519060200190611c2b929190612b52565b5084600080611c398a612368565b81526020019081526020016000206003019080519060200190611c5d929190612b52565b5083600080611c6b8a612368565b815260200190815260200160002060040160006101000a81548160ff02191690831515021790555082600080611ca08a612368565b815260200190815260200160002060050160000160006101000a81548163ffffffff021916908363ffffffff16021790555081600080611cdf8a612368565b815260200190815260200160002060050160000160046101000a81548163ffffffff021916908363ffffffff16021790555080600080611d1e8a612368565b815260200190815260200160002060050160000160086101000a81548160ff021916908360ff1602179055503373ffffffffffffffffffffffffffffffffffffffff167fbd2084e422fc10df81bbda41880bba993bf3a950ef03bb5c8e2c9d28f4fc1d8988604051808060200180602001838103835284818151815260200191508051906020019080838360005b83811015611dc7578082015181840152602081019050611dac565b50505050905090810190601f168015611df45780820380516001836020036101000a031916815260200191505b508381038252600f8152602001807f4143434f554e545f555044415445440000000000000000000000000000000000815250602001935050505060405180910390a2611f28565b3373ffffffffffffffffffffffffffffffffffffffff167fbd2084e422fc10df81bbda41880bba993bf3a950ef03bb5c8e2c9d28f4fc1d8988604051808060200180602001838103835284818151815260200191508051906020019080838360005b83811015611eb8578082015181840152602081019050611e9d565b50505050905090810190601f168015611ee55780820380516001836020036101000a031916815260200191505b50838103825260118152602001807f4143434f554e545f4e4f545f4f574e4552000000000000000000000000000000815250602001935050505060405180910390a25b612254565b611f35612aec565b60018160000190151590811515815250506060604051908101604052808563ffffffff1681526020018463ffffffff1681526020018360ff168152508160c0018190525033816020019073ffffffffffffffffffffffffffffffffffffffff16908173ffffffffffffffffffffffffffffffffffffffff1681525050868160600181905250858160800181905250848160a001901515908115158152505080600080611fe08b612368565b815260200190815260200160002060008201518160000160006101000a81548160ff02191690831515021790555060208201518160000160016101000a81548173ffffffffffffffffffffffffffffffffffffffff021916908373ffffffffffffffffffffffffffffffffffffffff1602179055506040820151816001019080519060200190612071929190612bd2565b50606082015181600201908051906020019061208e929190612bd2565b5060808201518160030190805190602001906120ab929190612bd2565b5060a08201518160040160006101000a81548160ff02191690831515021790555060c08201518160050160008201518160000160006101000a81548163ffffffff021916908363ffffffff16021790555060208201518160000160046101000a81548163ffffffff021916908363ffffffff16021790555060408201518160000160086101000a81548160ff021916908360ff160217905550505060e0820151816006019080519060200190612162929190612c52565b509050503373ffffffffffffffffffffffffffffffffffffffff167fbd2084e422fc10df81bbda41880bba993bf3a950ef03bb5c8e2c9d28f4fc1d8989604051808060200180602001838103835284818151815260200191508051906020019080838360005b838110156121e35780820151818401526020810190506121c8565b50505050905090810190601f1680156122105780820380516001836020036101000a031916815260200191505b508381038252600f8152602001807f4143434f554e545f435245415445440000000000000000000000000000000000815250602001935050505060405180910390a2505b50505050505050565b60008061226983612368565b905060008061227785612368565b815260200190815260200160002060000160019054906101000a900473ffffffffffffffffffffffffffffffffffffffff1673ffffffffffffffffffffffffffffffffffffffff163373ffffffffffffffffffffffffffffffffffffffff1614915050919050565b60606122ea826114ad565b15612362576000806122fb84612368565b815260200190815260200160002060060180548060200260200160405190810160405280929190818152602001828054801561235657602002820191906000526020600020905b815481526020019060010190808311612342575b50505050509050612363565b5b919050565b600081805190602001209050919050565b6000806123858b6114ad565b156129dd576123938b61225d565b156128c25760006123a38c612368565b90506123ad612ab6565b8a81600001819052508981602001819052508881604001819052508781606001819052506060604051908101604052808863ffffffff1681526020018763ffffffff1681526020018660ff168152508160800181905250600042905060008d1415612682578160008085815260200190815260200160002060070160008381526020019081526020016000206000820151816000019080519060200190612455929190612bd2565b506020820151816001019080519060200190612472929190612bd2565b50604082015181600201908051906020019061248f929190612bd2565b5060608201518160030190805190602001906124ac929190612bd2565b5060808201518160040160008201518160000160006101000a81548163ffffffff021916908363ffffffff16021790555060208201518160000160046101000a81548163ffffffff021916908363ffffffff16021790555060408201518160000160086101000a81548160ff021916908360ff16021790555050509050506000808481526020019081526020016000206006018190806001815401808255809150509060018203906000526020600020016000909192909190915055508093507f6f65d46a2fed67c68f4cce828e861e7f82e82f6e805e066a3b015f53ed69ce0c338f8f604051808473ffffffffffffffffffffffffffffffffffffffff1673ffffffffffffffffffffffffffffffffffffffff1681526020018060200183815260200180602001838103835285818151815260200191508051906020019080838360005b8381101561260c5780820151818401526020810190506125f1565b50505050905090810190601f1680156126395780820380516001836020036101000a031916815260200191505b508381038252600d8152602001807f504c4143455f43524541544544000000000000000000000000000000000000008152506020019550505050505060405180910390a16128ba565b61268d8e8e836129ec565b81600080858152602001908152602001600020600701600083815260200190815260200160002060008201518160000190805190602001906126d0929190612bd2565b5060208201518160010190805190602001906126ed929190612bd2565b50604082015181600201908051906020019061270a929190612bd2565b506060820151816003019080519060200190612727929190612bd2565b5060808201518160040160008201518160000160006101000a81548163ffffffff021916908363ffffffff16021790555060208201518160000160046101000a81548163ffffffff021916908363ffffffff16021790555060408201518160000160086101000a81548160ff021916908360ff16021790555050509050508093507f6f65d46a2fed67c68f4cce828e861e7f82e82f6e805e066a3b015f53ed69ce0c338f83604051808473ffffffffffffffffffffffffffffffffffffffff1673ffffffffffffffffffffffffffffffffffffffff1681526020018060200183815260200180602001838103835285818151815260200191508051906020019080838360005b8381101561284857808201518184015260208101905061282d565b50505050905090810190601f1680156128755780820380516001836020036101000a031916815260200191505b508381038252600d8152602001807f504c4143455f55504441544544000000000000000000000000000000000000008152506020019550505050505060405180910390a15b5050506129d4565b7f6f65d46a2fed67c68f4cce828e861e7f82e82f6e805e066a3b015f53ed69ce0c338c8c604051808473ffffffffffffffffffffffffffffffffffffffff1673ffffffffffffffffffffffffffffffffffffffff1681526020018060200183815260200180602001838103835285818151815260200191508051906020019080838360005b83811015612962578082015181840152602081019050612947565b50505050905090810190601f16801561298f5780820380516001836020036101000a031916815260200191505b50838103825260118152602001807f4143434f554e545f4e4f545f4f574e45520000000000000000000000000000008152506020019550505050505060405180910390a15b809150506129df565b505b9998505050505050505050565b6129f5836114ad565b15612ab15760008090505b600080612a0c86612368565b815260200190815260200160002060060180549050811015612aaf5782600080612a3587612368565b815260200190815260200160002060060182815481101515612a5357fe5b90600052602060002001541415612aa25781600080612a7187612368565b815260200190815260200160002060060182815481101515612a8f57fe5b9060005260206000200181905550612aaf565b8080600101915050612a00565b505b505050565b60e06040519081016040528060608152602001606081526020016060815260200160608152602001612ae6612c9f565b81525090565b61014060405190810160405280600015158152602001600073ffffffffffffffffffffffffffffffffffffffff168152602001606081526020016060815260200160608152602001600015158152602001612b45612c9f565b8152602001606081525090565b828054600181600116156101000203166002900490600052602060002090601f016020900481019282601f10612b9357805160ff1916838001178555612bc1565b82800160010185558215612bc1579182015b82811115612bc0578251825591602001919060010190612ba5565b5b509050612bce9190612cd0565b5090565b828054600181600116156101000203166002900490600052602060002090601f016020900481019282601f10612c1357805160ff1916838001178555612c41565b82800160010185558215612c41579182015b82811115612c40578251825591602001919060010190612c25565b5b509050612c4e9190612cd0565b5090565b828054828255906000526020600020908101928215612c8e579160200282015b82811115612c8d578251825591602001919060010190612c72565b5b509050612c9b9190612cd0565b5090565b606060405190810160405280600063ffffffff168152602001600063ffffffff168152602001600060ff1681525090565b612cf291905b80821115612cee576000816000905550600101612cd6565b5090565b9056fea165627a7a7230582091d08a40c7c6c95e09b850adbf9b2e9cb8e4f258aa8b6e208eb09ed3698de9790029",
  "source": "//pragma solidity ^0.4.17;\npragma solidity ^0.5.0;\n\n//pragma experimental ABIEncoderV2;\n\ncontract chainMaps {\n\n    struct geoLatLng {\n        uint32 lat;\n        uint32 lng;\n        uint8 zoom;\n    }\n\n    struct place {\n        string title;\n        string desc;\n        string imageLink;\n        string category;\n        geoLatLng position;\n    }\n\n    struct account {\n        bool exist;\n        address owner;\n        string ownerIdname;\n        string desc;\n        string extraData;\n        bool clusterize;\n        geoLatLng position;\n        uint256[] placesIndex; // array de timestamps (hora de escritura)\n        mapping( uint256 => place )  places; // o key vai ser un timestamp (hora de escritura)\n    }\n\n\n    mapping(bytes32 => account)  accounts;\n\n    event AccountSubmit(\n      address indexed owner,\n      string accountIdName,\n      string result\n    );\n\n    event PlaceSubmit(\n      address owner,\n      string accountIdName,\n      uint256 placeTtIndex,\n      string result\n    );\n\n\n    constructor() public { owner = msg.sender; }\n    address payable owner;\n\n    // This contract only defines a modifier but does not use\n    // it: it will be used in derived contracts.\n    // The function body is inserted where the special symbol\n    // `_;` in the definition of a modifier appears.\n    // This means that if the owner calls this function, the\n    // function is executed and otherwise, an exception is\n    // thrown.\n    modifier onlyOwner {\n        require(\n            msg.sender == owner,\n            \"Only owner can call this function.\"\n        );\n        _;\n    }\n\n\n    function setAccount( string memory accountIdName, string memory desc, string memory extraData, bool clusterize, uint32 lat, uint32 lng, uint8 zoom ) public payable {\n\n        if( accountExist(accountIdName) ) {\n\n          if( isOwner(accountIdName) ) {\n            accounts[accountHash(accountIdName)].ownerIdname = accountIdName;\n            accounts[accountHash(accountIdName)].desc = desc;\n            accounts[accountHash(accountIdName)].extraData = extraData;\n            accounts[accountHash(accountIdName)].clusterize = clusterize;\n            accounts[accountHash(accountIdName)].position.lat = lat;\n            accounts[accountHash(accountIdName)].position.lng = lng;\n            accounts[accountHash(accountIdName)].position.zoom = zoom;\n\n            emit AccountSubmit( msg.sender , accountIdName, 'ACCOUNT_UPDATED');\n          }\n          else{\n            emit AccountSubmit( msg.sender , accountIdName, 'ACCOUNT_NOT_OWNER');\n          }\n\n        }\n        else {\n            account memory acc;\n\n            acc.exist = true;\n            acc.position = geoLatLng({\n                lat: lat,\n                lng: lng,\n                zoom: zoom\n            });\n            acc.owner = msg.sender;\n            acc.desc = desc;\n            acc.extraData = extraData;\n            acc.clusterize = clusterize;\n\n            accounts[accountHash(accountIdName)] = acc;\n            emit AccountSubmit( msg.sender , accountIdName, 'ACCOUNT_CREATED');\n        }\n    }\n\n\n    function getAccount(string memory accountIdName) public\n        returns (\n            string memory owner,\n            string memory desc,\n            string memory extraData,\n            bool,\n            uint32 lat,\n            uint32 lng,\n            uint8 zoom,\n            uint placesNumber\n        )  {\n\n        if( accountExist(accountIdName) ) {\n            account memory ac;\n            ac = accounts[accountHash(accountIdName)];\n            return (\n                ac.ownerIdname,\n                ac.desc,\n                ac.extraData,\n                ac.clusterize,\n                ac.position.lat,\n                ac.position.lng,\n                ac.position.zoom,\n                ac.placesIndex.length\n            );\n        }\n    }\n\n    function setPlace( string memory accountIdName, uint256 ttIndex, string memory title, string memory desc, string memory imageLink, string memory category, uint32 lat, uint32 lng, uint8 zoom  ) public payable returns (uint256) {\n        uint256 ret;\n\n\n\n        if( accountExist(accountIdName) ) {\n\n            if( isOwner(accountIdName) ) {\n                bytes32 accountIdNameHash;\n                accountIdNameHash = accountHash(accountIdName);\n\n                place memory pl;\n                pl.title = title;\n                pl.desc = desc;\n                pl.imageLink = imageLink;\n                pl.category = category;\n                pl.position = geoLatLng({\n                        lat: lat,\n                        lng: lng,\n                        zoom: zoom\n                    });\n\n                uint256 n;\n\n                n = now;\n                if( ttIndex == 0 ) { // Create\n\n                    accounts[ accountIdNameHash ].places[n] = pl;\n                    accounts[ accountIdNameHash ].placesIndex.push(n);\n\n                    ret = n;\n                    emit PlaceSubmit( msg.sender, accountIdName, ttIndex, 'PLACE_CREATED');\n                }\n                else { // update\n\n                    replacePlaceTtindex(accountIdName,ttIndex, n);\n                    accounts[ accountIdNameHash ].places[ n ] = pl;\n                    ret = n;\n                    emit PlaceSubmit( msg.sender, accountIdName , n, 'PLACE_UPDATED');\n                }\n\n\n            }\n            else {\n              emit PlaceSubmit( msg.sender, accountIdName, ttIndex, 'ACCOUNT_NOT_OWNER');\n            }\n\n            return ret;\n        }\n\n\n    }\n\n    function replacePlaceTtindex(string memory accountIdName ,uint256 ttIndex, uint256 newTtIndex) private {\n        if( accountExist(accountIdName) ) {\n\n            for (uint i=0; i<accounts[ accountHash(accountIdName) ].placesIndex.length; i++) {\n                if( accounts[ accountHash(accountIdName) ].placesIndex[i] == ttIndex ) {\n                    accounts[ accountHash(accountIdName) ].placesIndex[i] = newTtIndex;\n                    break;\n                }\n\n            }\n\n\n        }\n    }\n\n\n    function getPlace( string memory accountIdName, uint256 ttIndex ) public\n        returns(\n            string memory title,\n            string memory desc,\n            string memory imageLink,\n            string memory category,\n            uint32 lat,\n            uint32 lng,\n            uint8 zoom\n            ) {\n        if( accountExist(accountIdName) ) {\n            place memory pl;\n            pl = accounts[accountHash(accountIdName)].places[ttIndex];\n\n            return (\n                pl.title,\n                pl.desc,\n                pl.imageLink,\n                pl.category,\n                pl.position.lat,\n                pl.position.lng,\n                pl.position.zoom\n            );\n        }\n    }\n\n    function deletePlace( string memory accountIdName, uint256 ttIndex ) public payable {\n        if( accountExist(accountIdName) ) {\n            if( isOwner(accountIdName) ) {\n                for (uint i=0; i<accounts[ accountHash(accountIdName) ].placesIndex.length; i++) {\n                    if( accounts[ accountHash(accountIdName) ].placesIndex[i] == ttIndex ) {\n                        delete accounts[ accountHash(accountIdName) ].placesIndex[i];\n                    }\n\n                }\n            }\n\n        }\n    }\n\n    /*\n    function listPlaces( string memory accountIdName ) public\n        returns(\n            string[] memory title,\n            string[] memory desc,\n            string[] memory imageLink,\n            uint32[] memory lat,\n            uint32[] memory lng,\n            uint8[] memory zoom\n            ) {\n\n        string[] memory title_s;\n        string[] memory desc_s;\n        string[] memory imageLink_s;\n        uint32[] memory lat_s;\n        uint32[] memory lng_s;\n        uint8[] memory zoom_s;\n\n        if( accountExist(accountIdName) ) {\n\n            account memory acc;\n            acc = accounts[ accountHash(accountIdName) ];\n            place memory pl;\n\n            uint placesIndexLength = acc.placesIndex.length;\n            for (uint i=0; i<placesIndexLength; i++) {\n                pl = acc.places[i];\n                title_s[i] = pl.title ;\n                desc_s[i] = pl.desc ;\n                imageLink_s[i] = pl.imageLink ;\n                lat_s[i] = pl.position.lat ;\n                lng_s[i] = pl.position.lng ;\n                zoom_s[i] =  pl.position.zoom ;\n            }\n\n            return (\n                title_s,\n                desc_s,\n                imageLink_s,\n                lat_s,\n                lng_s,\n                zoom_s\n            );\n\n        }\n\n    }*/\n\n    function listPlaceIndex( string memory accountIdName ) public returns( uint256[] memory placesIndex ) {\n        if( accountExist(accountIdName) ) {\n            return accounts[ accountHash(accountIdName) ].placesIndex;\n        }\n    }\n\n    function accountHash( string memory accountIdName ) public returns (bytes32) {\n        return keccak256( bytes(accountIdName) );\n    }\n\n    function accountExist(string memory accountIdName) public returns (bool) {\n        bytes32 accountIdNameHash;\n        accountIdNameHash = accountHash(accountIdName);\n\n        return (accounts[accountHash(accountIdName)].exist == true );\n    }\n\n\n    function isOwner( string memory accountIdName ) public returns (bool){\n        bytes32 accountIdNameHash;\n        accountIdNameHash = accountHash(accountIdName);\n\n        return (msg.sender == accounts[accountHash(accountIdName)].owner);\n    }\n\n    function addressIsOwner( address owner,  string memory accountIdName ) public returns (bool){\n      bytes32 accountIdNameHash;\n      accountIdNameHash = accountHash(accountIdName);\n\n      return (owner == accounts[accountHash(accountIdName)].owner);\n    }\n\n\n\n    function withdraw() external onlyOwner {\n        owner.transfer(address(this).balance);\n    }\n\n\n\n}\n",
  "sourcePath": "/home/pablinho/desarrollo/chainMaps/contracts/chainMaps.sol",
  "compiler": {
    "name": "solc",
    "version": "0.5.0+commit.1d4f565a.Emscripten.clang"
  },
  "schemaVersion": "3.0.0",
  "updatedAt": "2019-03-06T16:49:58.533Z",
  "devdoc": {
    "methods": {}
  },
  "userdoc": {
    "methods": {}
  }
}