{
  "contractName": "chainMaps",
  "abi": [
    {
      "inputs": [],
      "payable": false,
      "stateMutability": "nonpayable",
      "type": "constructor",
      "signature": "constructor"
    },
    {
      "anonymous": false,
      "inputs": [
        {
          "indexed": true,
          "name": "owner",
          "type": "address"
        },
        {
          "indexed": false,
          "name": "accountIdName",
          "type": "string"
        },
        {
          "indexed": false,
          "name": "result",
          "type": "string"
        }
      ],
      "name": "AccountSubmit",
      "type": "event",
      "signature": "0xbd2084e422fc10df81bbda41880bba993bf3a950ef03bb5c8e2c9d28f4fc1d89"
    },
    {
      "anonymous": false,
      "inputs": [
        {
          "indexed": false,
          "name": "owner",
          "type": "address"
        },
        {
          "indexed": false,
          "name": "accountIdName",
          "type": "string"
        },
        {
          "indexed": false,
          "name": "placeTtIndex",
          "type": "uint256"
        },
        {
          "indexed": false,
          "name": "result",
          "type": "string"
        }
      ],
      "name": "PlaceSubmit",
      "type": "event",
      "signature": "0x6f65d46a2fed67c68f4cce828e861e7f82e82f6e805e066a3b015f53ed69ce0c"
    },
    {
      "constant": false,
      "inputs": [
        {
          "name": "accountIdName",
          "type": "string"
        },
        {
          "name": "desc",
          "type": "string"
        },
        {
          "name": "extraData",
          "type": "string"
        },
        {
          "name": "clusterize",
          "type": "bool"
        },
        {
          "name": "lat",
          "type": "uint32"
        },
        {
          "name": "lng",
          "type": "uint32"
        },
        {
          "name": "zoom",
          "type": "uint8"
        }
      ],
      "name": "setAccount",
      "outputs": [],
      "payable": true,
      "stateMutability": "payable",
      "type": "function",
      "signature": "0xa01ecd6b"
    },
    {
      "constant": false,
      "inputs": [
        {
          "name": "accountIdName",
          "type": "string"
        }
      ],
      "name": "getAccount",
      "outputs": [
        {
          "name": "owner",
          "type": "string"
        },
        {
          "name": "desc",
          "type": "string"
        },
        {
          "name": "extraData",
          "type": "string"
        },
        {
          "name": "",
          "type": "bool"
        },
        {
          "name": "lat",
          "type": "uint32"
        },
        {
          "name": "lng",
          "type": "uint32"
        },
        {
          "name": "zoom",
          "type": "uint8"
        },
        {
          "name": "placesNumber",
          "type": "uint256"
        }
      ],
      "payable": false,
      "stateMutability": "nonpayable",
      "type": "function",
      "signature": "0x4518f6b3"
    },
    {
      "constant": false,
      "inputs": [
        {
          "name": "accountIdName",
          "type": "string"
        },
        {
          "name": "ttIndex",
          "type": "uint256"
        },
        {
          "name": "title",
          "type": "string"
        },
        {
          "name": "desc",
          "type": "string"
        },
        {
          "name": "imageLink",
          "type": "string"
        },
        {
          "name": "category",
          "type": "uint32"
        },
        {
          "name": "lat",
          "type": "uint32"
        },
        {
          "name": "lng",
          "type": "uint32"
        },
        {
          "name": "zoom",
          "type": "uint8"
        }
      ],
      "name": "setPlace",
      "outputs": [
        {
          "name": "",
          "type": "uint256"
        }
      ],
      "payable": true,
      "stateMutability": "payable",
      "type": "function",
      "signature": "0xac967f35"
    },
    {
      "constant": false,
      "inputs": [
        {
          "name": "accountIdName",
          "type": "string"
        },
        {
          "name": "ttIndex",
          "type": "uint256"
        }
      ],
      "name": "getPlace",
      "outputs": [
        {
          "name": "title",
          "type": "string"
        },
        {
          "name": "desc",
          "type": "string"
        },
        {
          "name": "imageLink",
          "type": "string"
        },
        {
          "name": "category",
          "type": "uint32"
        },
        {
          "name": "lat",
          "type": "uint32"
        },
        {
          "name": "lng",
          "type": "uint32"
        },
        {
          "name": "zoom",
          "type": "uint8"
        }
      ],
      "payable": false,
      "stateMutability": "nonpayable",
      "type": "function",
      "signature": "0x03d6f8e3"
    },
    {
      "constant": false,
      "inputs": [
        {
          "name": "accountIdName",
          "type": "string"
        },
        {
          "name": "ttIndex",
          "type": "uint256"
        }
      ],
      "name": "deletePlace",
      "outputs": [],
      "payable": true,
      "stateMutability": "payable",
      "type": "function",
      "signature": "0x4f93fee7"
    },
    {
      "constant": false,
      "inputs": [
        {
          "name": "accountIdName",
          "type": "string"
        }
      ],
      "name": "listPlaceIndex",
      "outputs": [
        {
          "name": "placesIndex",
          "type": "uint256[]"
        }
      ],
      "payable": false,
      "stateMutability": "nonpayable",
      "type": "function",
      "signature": "0xd555b07b"
    },
    {
      "constant": false,
      "inputs": [
        {
          "name": "accountIdName",
          "type": "string"
        }
      ],
      "name": "accountHash",
      "outputs": [
        {
          "name": "",
          "type": "bytes32"
        }
      ],
      "payable": false,
      "stateMutability": "nonpayable",
      "type": "function",
      "signature": "0xe6557794"
    },
    {
      "constant": false,
      "inputs": [
        {
          "name": "accountIdName",
          "type": "string"
        }
      ],
      "name": "accountExist",
      "outputs": [
        {
          "name": "",
          "type": "bool"
        }
      ],
      "payable": false,
      "stateMutability": "nonpayable",
      "type": "function",
      "signature": "0x36980d3a"
    },
    {
      "constant": false,
      "inputs": [
        {
          "name": "accountIdName",
          "type": "string"
        }
      ],
      "name": "isOwner",
      "outputs": [
        {
          "name": "",
          "type": "bool"
        }
      ],
      "payable": false,
      "stateMutability": "nonpayable",
      "type": "function",
      "signature": "0xb85e943d"
    },
    {
      "constant": false,
      "inputs": [
        {
          "name": "owner",
          "type": "address"
        },
        {
          "name": "accountIdName",
          "type": "string"
        }
      ],
      "name": "addressIsOwner",
      "outputs": [
        {
          "name": "",
          "type": "bool"
        }
      ],
      "payable": false,
      "stateMutability": "nonpayable",
      "type": "function",
      "signature": "0x5444903e"
    },
    {
      "constant": false,
      "inputs": [],
      "name": "withdraw",
      "outputs": [],
      "payable": false,
      "stateMutability": "nonpayable",
      "type": "function",
      "signature": "0x3ccfd60b"
    }
  ],
  "bytecode": "0x608060405234801561001057600080fd5b5033600160006101000a81548173ffffffffffffffffffffffffffffffffffffffff021916908373ffffffffffffffffffffffffffffffffffffffff160217905550612beb806100616000396000f3fe6080604052600436106100af576000357c0100000000000000000000000000000000000000000000000000000000900463ffffffff16806303d6f8e3146100b457806336980d3a1461031d5780633ccfd60b146103fd5780634518f6b3146104145780634f93fee7146106725780635444903e14610737578063a01ecd6b14610837578063ac967f3514610a59578063b85e943d14610d35578063d555b07b14610e15578063e655779414610f32575b600080fd5b3480156100c057600080fd5b50610184600480360360408110156100d757600080fd5b81019080803590602001906401000000008111156100f457600080fd5b82018360208201111561010657600080fd5b8035906020019184600183028401116401000000008311171561012857600080fd5b91908080601f016020809104026020016040519081016040528093929190818152602001838380828437600081840152601f19601f8201169050808301925050505050505091929192908035906020019092919050505061100e565b604051808060200180602001806020018863ffffffff1663ffffffff1681526020018763ffffffff1663ffffffff1681526020018663ffffffff1663ffffffff1681526020018560ff1660ff16815260200184810384528b818151815260200191508051906020019080838360005b8381101561020e5780820151818401526020810190506101f3565b50505050905090810190601f16801561023b5780820380516001836020036101000a031916815260200191505b5084810383528a818151815260200191508051906020019080838360005b83811015610274578082015181840152602081019050610259565b50505050905090810190601f1680156102a15780820380516001836020036101000a031916815260200191505b50848103825289818151815260200191508051906020019080838360005b838110156102da5780820151818401526020810190506102bf565b50505050905090810190601f1680156103075780820380516001836020036101000a031916815260200191505b509a505050505050505050505060405180910390f35b34801561032957600080fd5b506103e36004803603602081101561034057600080fd5b810190808035906020019064010000000081111561035d57600080fd5b82018360208201111561036f57600080fd5b8035906020019184600183028401116401000000008311171561039157600080fd5b91908080601f016020809104026020016040519081016040528093929190818152602001838380828437600081840152601f19601f82011690508083019250505050505050919291929050505061134e565b604051808215151515815260200191505060405180910390f35b34801561040957600080fd5b50610412611396565b005b34801561042057600080fd5b506104da6004803603602081101561043757600080fd5b810190808035906020019064010000000081111561045457600080fd5b82018360208201111561046657600080fd5b8035906020019184600183028401116401000000008311171561048857600080fd5b91908080601f016020809104026020016040519081016040528093929190818152602001838380828437600081840152601f19601f820116905080830192505050505050509192919290505050611503565b60405180806020018060200180602001891515151581526020018863ffffffff1663ffffffff1681526020018763ffffffff1663ffffffff1681526020018660ff1660ff16815260200185815260200184810384528c818151815260200191508051906020019080838360005b83811015610562578082015181840152602081019050610547565b50505050905090810190601f16801561058f5780820380516001836020036101000a031916815260200191505b5084810383528b818151815260200191508051906020019080838360005b838110156105c85780820151818401526020810190506105ad565b50505050905090810190601f1680156105f55780820380516001836020036101000a031916815260200191505b5084810382528a818151815260200191508051906020019080838360005b8381101561062e578082015181840152602081019050610613565b50505050905090810190601f16801561065b5780820380516001836020036101000a031916815260200191505b509b50505050505050505050505060405180910390f35b6107356004803603604081101561068857600080fd5b81019080803590602001906401000000008111156106a557600080fd5b8201836020820111156106b757600080fd5b803590602001918460018302840111640100000000831117156106d957600080fd5b91908080601f016020809104026020016040519081016040528093929190818152602001838380828437600081840152601f19601f820116905080830192505050505050509192919290803590602001909291905050506118f7565b005b34801561074357600080fd5b5061081d6004803603604081101561075a57600080fd5b81019080803573ffffffffffffffffffffffffffffffffffffffff1690602001909291908035906020019064010000000081111561079757600080fd5b8201836020820111156107a957600080fd5b803590602001918460018302840111640100000000831117156107cb57600080fd5b91908080601f016020809104026020016040519081016040528093929190818152602001838380828437600081840152601f19601f8201169050808301925050505050505091929192905050506119ca565b604051808215151515815260200191505060405180910390f35b610a57600480360360e081101561084d57600080fd5b810190808035906020019064010000000081111561086a57600080fd5b82018360208201111561087c57600080fd5b8035906020019184600183028401116401000000008311171561089e57600080fd5b91908080601f016020809104026020016040519081016040528093929190818152602001838380828437600081840152601f19601f8201169050808301925050505050505091929192908035906020019064010000000081111561090157600080fd5b82018360208201111561091357600080fd5b8035906020019184600183028401116401000000008311171561093557600080fd5b91908080601f016020809104026020016040519081016040528093929190818152602001838380828437600081840152601f19601f8201169050808301925050505050505091929192908035906020019064010000000081111561099857600080fd5b8201836020820111156109aa57600080fd5b803590602001918460018302840111640100000000831117156109cc57600080fd5b91908080601f016020809104026020016040519081016040528093929190818152602001838380828437600081840152601f19601f820116905080830192505050505050509192919290803515159060200190929190803563ffffffff169060200190929190803563ffffffff169060200190929190803560ff169060200190929190505050611a4d565b005b610d1f6004803603610120811015610a7057600080fd5b8101908080359060200190640100000000811115610a8d57600080fd5b820183602082011115610a9f57600080fd5b80359060200191846001830284011164010000000083111715610ac157600080fd5b91908080601f016020809104026020016040519081016040528093929190818152602001838380828437600081840152601f19601f8201169050808301925050505050505091929192908035906020019092919080359060200190640100000000811115610b2e57600080fd5b820183602082011115610b4057600080fd5b80359060200191846001830284011164010000000083111715610b6257600080fd5b91908080601f016020809104026020016040519081016040528093929190818152602001838380828437600081840152601f19601f82011690508083019250505050505050919291929080359060200190640100000000811115610bc557600080fd5b820183602082011115610bd757600080fd5b80359060200191846001830284011164010000000083111715610bf957600080fd5b91908080601f016020809104026020016040519081016040528093929190818152602001838380828437600081840152601f19601f82011690508083019250505050505050919291929080359060200190640100000000811115610c5c57600080fd5b820183602082011115610c6e57600080fd5b80359060200191846001830284011164010000000083111715610c9057600080fd5b91908080601f016020809104026020016040519081016040528093929190818152602001838380828437600081840152601f19601f820116905080830192505050505050509192919290803563ffffffff169060200190929190803563ffffffff169060200190929190803563ffffffff169060200190929190803560ff1690602001909291905050506120fe565b6040518082815260200191505060405180910390f35b348015610d4157600080fd5b50610dfb60048036036020811015610d5857600080fd5b8101908080359060200190640100000000811115610d7557600080fd5b820183602082011115610d8757600080fd5b80359060200191846001830284011164010000000083111715610da957600080fd5b91908080601f016020809104026020016040519081016040528093929190818152602001838380828437600081840152601f19601f820116905080830192505050505050509192919290505050612794565b604051808215151515815260200191505060405180910390f35b348015610e2157600080fd5b50610edb60048036036020811015610e3857600080fd5b8101908080359060200190640100000000811115610e5557600080fd5b820183602082011115610e6757600080fd5b80359060200191846001830284011164010000000083111715610e8957600080fd5b91908080601f016020809104026020016040519081016040528093929190818152602001838380828437600081840152601f19601f820116905080830192505050505050509192919290505050612816565b6040518080602001828103825283818151815260200191508051906020019060200280838360005b83811015610f1e578082015181840152602081019050610f03565b505050509050019250505060405180910390f35b348015610f3e57600080fd5b50610ff860048036036020811015610f5557600080fd5b8101908080359060200190640100000000811115610f7257600080fd5b820183602082011115610f8457600080fd5b80359060200191846001830284011164010000000083111715610fa657600080fd5b91908080601f016020809104026020016040519081016040528093929190818152602001838380828437600081840152601f19601f82011690508083019250505050505050919291929050505061289f565b6040518082815260200191505060405180910390f35b60608060606000806000806110228961134e565b156113415761102f61297a565b60008061103b8c61289f565b815260200190815260200160002060070160008a815260200190815260200160002060a06040519081016040529081600082018054600181600116156101000203166002900480601f0160208091040260200160405190810160405280929190818152602001828054600181600116156101000203166002900480156111025780601f106110d757610100808354040283529160200191611102565b820191906000526020600020905b8154815290600101906020018083116110e557829003601f168201915b50505050508152602001600182018054600181600116156101000203166002900480601f0160208091040260200160405190810160405280929190818152602001828054600181600116156101000203166002900480156111a45780601f10611179576101008083540402835291602001916111a4565b820191906000526020600020905b81548152906001019060200180831161118757829003601f168201915b50505050508152602001600282018054600181600116156101000203166002900480601f0160208091040260200160405190810160405280929190818152602001828054600181600116156101000203166002900480156112465780601f1061121b57610100808354040283529160200191611246565b820191906000526020600020905b81548152906001019060200180831161122957829003601f168201915b505050505081526020016003820160009054906101000a900463ffffffff1663ffffffff1663ffffffff16815260200160048201606060405190810160405290816000820160009054906101000a900463ffffffff1663ffffffff1663ffffffff1681526020016000820160049054906101000a900463ffffffff1663ffffffff1663ffffffff1681526020016000820160089054906101000a900460ff1660ff1660ff16815250508152505090508060000151816020015182604001518360600151846080015160000151856080015160200151866080015160400151869650859550849450975097509750975097509750975050611342565b5b92959891949750929550565b60008061135a8361289f565b90506001151560008061136c8661289f565b815260200190815260200160002060000160009054906101000a900460ff16151514915050919050565b600160009054906101000a900473ffffffffffffffffffffffffffffffffffffffff1673ffffffffffffffffffffffffffffffffffffffff163373ffffffffffffffffffffffffffffffffffffffff16141515611481576040517f08c379a00000000000000000000000000000000000000000000000000000000081526004018080602001828103825260228152602001807f4f6e6c79206f776e65722063616e2063616c6c20746869732066756e6374696f81526020017f6e2e00000000000000000000000000000000000000000000000000000000000081525060400191505060405180910390fd5b600160009054906101000a900473ffffffffffffffffffffffffffffffffffffffff1673ffffffffffffffffffffffffffffffffffffffff166108fc3073ffffffffffffffffffffffffffffffffffffffff16319081150290604051600060405180830381858888f19350505050158015611500573d6000803e3d6000fd5b50565b606080606060008060008060006115198961134e565b156118eb576115266129b6565b6000806115328c61289f565b815260200190815260200160002061010060405190810160405290816000820160009054906101000a900460ff161515151581526020016000820160019054906101000a900473ffffffffffffffffffffffffffffffffffffffff1673ffffffffffffffffffffffffffffffffffffffff1673ffffffffffffffffffffffffffffffffffffffff168152602001600182018054600181600116156101000203166002900480601f0160208091040260200160405190810160405280929190818152602001828054600181600116156101000203166002900480156116575780601f1061162c57610100808354040283529160200191611657565b820191906000526020600020905b81548152906001019060200180831161163a57829003601f168201915b50505050508152602001600282018054600181600116156101000203166002900480601f0160208091040260200160405190810160405280929190818152602001828054600181600116156101000203166002900480156116f95780601f106116ce576101008083540402835291602001916116f9565b820191906000526020600020905b8154815290600101906020018083116116dc57829003601f168201915b50505050508152602001600382018054600181600116156101000203166002900480601f01602080910402602001604051908101604052809291908181526020018280546001816001161561010002031660029004801561179b5780601f106117705761010080835404028352916020019161179b565b820191906000526020600020905b81548152906001019060200180831161177e57829003601f168201915b505050505081526020016004820160009054906101000a900460ff1615151515815260200160058201606060405190810160405290816000820160009054906101000a900463ffffffff1663ffffffff1663ffffffff1681526020016000820160049054906101000a900463ffffffff1663ffffffff1663ffffffff1681526020016000820160089054906101000a900460ff1660ff1660ff168152505081526020016006820180548060200260200160405190810160405280929190818152602001828054801561188c57602002820191906000526020600020905b815481526020019060010190808311611878575b50505050508152505090508060400151816060015182608001518360a001518460c00151600001518560c00151602001518660c00151604001518760e001515187975086965085955098509850985098509850985098509850506118ec565b5b919395975091939597565b6119008261134e565b156119c65761190e82612794565b156119c55760008090505b6000806119258561289f565b8152602001908152602001600020600601805490508110156119c3578160008061194e8661289f565b81526020019081526020016000206006018281548110151561196c57fe5b906000526020600020015414156119b6576000806119898561289f565b8152602001908152602001600020600601818154811015156119a757fe5b90600052602060002001600090555b8080600101915050611919565b505b5b5050565b6000806119d68361289f565b90506000806119e48561289f565b815260200190815260200160002060000160019054906101000a900473ffffffffffffffffffffffffffffffffffffffff1673ffffffffffffffffffffffffffffffffffffffff168473ffffffffffffffffffffffffffffffffffffffff161491505092915050565b611a568761134e565b15611dce57611a6487612794565b15611cdc5786600080611a768a61289f565b81526020019081526020016000206001019080519060200190611a9a929190612a1c565b5085600080611aa88a61289f565b81526020019081526020016000206002019080519060200190611acc929190612a1c565b5084600080611ada8a61289f565b81526020019081526020016000206003019080519060200190611afe929190612a1c565b5083600080611b0c8a61289f565b815260200190815260200160002060040160006101000a81548160ff02191690831515021790555082600080611b418a61289f565b815260200190815260200160002060050160000160006101000a81548163ffffffff021916908363ffffffff16021790555081600080611b808a61289f565b815260200190815260200160002060050160000160046101000a81548163ffffffff021916908363ffffffff16021790555080600080611bbf8a61289f565b815260200190815260200160002060050160000160086101000a81548160ff021916908360ff1602179055503373ffffffffffffffffffffffffffffffffffffffff167fbd2084e422fc10df81bbda41880bba993bf3a950ef03bb5c8e2c9d28f4fc1d8988604051808060200180602001838103835284818151815260200191508051906020019080838360005b83811015611c68578082015181840152602081019050611c4d565b50505050905090810190601f168015611c955780820380516001836020036101000a031916815260200191505b508381038252600f8152602001807f4143434f554e545f555044415445440000000000000000000000000000000000815250602001935050505060405180910390a2611dc9565b3373ffffffffffffffffffffffffffffffffffffffff167fbd2084e422fc10df81bbda41880bba993bf3a950ef03bb5c8e2c9d28f4fc1d8988604051808060200180602001838103835284818151815260200191508051906020019080838360005b83811015611d59578082015181840152602081019050611d3e565b50505050905090810190601f168015611d865780820380516001836020036101000a031916815260200191505b50838103825260118152602001807f4143434f554e545f4e4f545f4f574e4552000000000000000000000000000000815250602001935050505060405180910390a25b6120f5565b611dd66129b6565b60018160000190151590811515815250506060604051908101604052808563ffffffff1681526020018463ffffffff1681526020018360ff168152508160c0018190525033816020019073ffffffffffffffffffffffffffffffffffffffff16908173ffffffffffffffffffffffffffffffffffffffff1681525050868160600181905250858160800181905250848160a001901515908115158152505080600080611e818b61289f565b815260200190815260200160002060008201518160000160006101000a81548160ff02191690831515021790555060208201518160000160016101000a81548173ffffffffffffffffffffffffffffffffffffffff021916908373ffffffffffffffffffffffffffffffffffffffff1602179055506040820151816001019080519060200190611f12929190612a9c565b506060820151816002019080519060200190611f2f929190612a9c565b506080820151816003019080519060200190611f4c929190612a9c565b5060a08201518160040160006101000a81548160ff02191690831515021790555060c08201518160050160008201518160000160006101000a81548163ffffffff021916908363ffffffff16021790555060208201518160000160046101000a81548163ffffffff021916908363ffffffff16021790555060408201518160000160086101000a81548160ff021916908360ff160217905550505060e0820151816006019080519060200190612003929190612b1c565b509050503373ffffffffffffffffffffffffffffffffffffffff167fbd2084e422fc10df81bbda41880bba993bf3a950ef03bb5c8e2c9d28f4fc1d8989604051808060200180602001838103835284818151815260200191508051906020019080838360005b83811015612084578082015181840152602081019050612069565b50505050905090810190601f1680156120b15780820380516001836020036101000a031916815260200191505b508381038252600f8152602001807f4143434f554e545f435245415445440000000000000000000000000000000000815250602001935050505060405180910390a2505b50505050505050565b60008061210a8b61134e565b15612785576121188b612794565b1561266a5760006121288c61289f565b905061213261297a565b8a816000018190525089816020018190525088816040018190525087816060019063ffffffff16908163ffffffff16815250506060604051908101604052808863ffffffff1681526020018763ffffffff1681526020018660ff168152508160800181905250600042905060008d14156124205781600080858152602001908152602001600020600701600083815260200190815260200160002060008201518160000190805190602001906121e9929190612a9c565b506020820151816001019080519060200190612206929190612a9c565b506040820151816002019080519060200190612223929190612a9c565b5060608201518160030160006101000a81548163ffffffff021916908363ffffffff16021790555060808201518160040160008201518160000160006101000a81548163ffffffff021916908363ffffffff16021790555060208201518160000160046101000a81548163ffffffff021916908363ffffffff16021790555060408201518160000160086101000a81548160ff021916908360ff16021790555050509050506000808481526020019081526020016000206006018190806001815401808255809150509060018203906000526020600020016000909192909190915055508093507f6f65d46a2fed67c68f4cce828e861e7f82e82f6e805e066a3b015f53ed69ce0c338f8f604051808473ffffffffffffffffffffffffffffffffffffffff1673ffffffffffffffffffffffffffffffffffffffff1681526020018060200183815260200180602001838103835285818151815260200191508051906020019080838360005b838110156123aa57808201518184015260208101905061238f565b50505050905090810190601f1680156123d75780820380516001836020036101000a031916815260200191505b508381038252600d8152602001807f504c4143455f43524541544544000000000000000000000000000000000000008152506020019550505050505060405180910390a1612662565b61242b8e8e836128b0565b816000808581526020019081526020016000206007016000838152602001908152602001600020600082015181600001908051906020019061246e929190612a9c565b50602082015181600101908051906020019061248b929190612a9c565b5060408201518160020190805190602001906124a8929190612a9c565b5060608201518160030160006101000a81548163ffffffff021916908363ffffffff16021790555060808201518160040160008201518160000160006101000a81548163ffffffff021916908363ffffffff16021790555060208201518160000160046101000a81548163ffffffff021916908363ffffffff16021790555060408201518160000160086101000a81548160ff021916908360ff16021790555050509050508093507f6f65d46a2fed67c68f4cce828e861e7f82e82f6e805e066a3b015f53ed69ce0c338f83604051808473ffffffffffffffffffffffffffffffffffffffff1673ffffffffffffffffffffffffffffffffffffffff1681526020018060200183815260200180602001838103835285818151815260200191508051906020019080838360005b838110156125f05780820151818401526020810190506125d5565b50505050905090810190601f16801561261d5780820380516001836020036101000a031916815260200191505b508381038252600d8152602001807f504c4143455f55504441544544000000000000000000000000000000000000008152506020019550505050505060405180910390a15b50505061277c565b7f6f65d46a2fed67c68f4cce828e861e7f82e82f6e805e066a3b015f53ed69ce0c338c8c604051808473ffffffffffffffffffffffffffffffffffffffff1673ffffffffffffffffffffffffffffffffffffffff1681526020018060200183815260200180602001838103835285818151815260200191508051906020019080838360005b8381101561270a5780820151818401526020810190506126ef565b50505050905090810190601f1680156127375780820380516001836020036101000a031916815260200191505b50838103825260118152602001807f4143434f554e545f4e4f545f4f574e45520000000000000000000000000000008152506020019550505050505060405180910390a15b80915050612787565b505b9998505050505050505050565b6000806127a08361289f565b90506000806127ae8561289f565b815260200190815260200160002060000160019054906101000a900473ffffffffffffffffffffffffffffffffffffffff1673ffffffffffffffffffffffffffffffffffffffff163373ffffffffffffffffffffffffffffffffffffffff1614915050919050565b60606128218261134e565b15612899576000806128328461289f565b815260200190815260200160002060060180548060200260200160405190810160405280929190818152602001828054801561288d57602002820191906000526020600020905b815481526020019060010190808311612879575b5050505050905061289a565b5b919050565b600081805190602001209050919050565b6128b98361134e565b156129755760008090505b6000806128d08661289f565b81526020019081526020016000206006018054905081101561297357826000806128f98761289f565b81526020019081526020016000206006018281548110151561291757fe5b9060005260206000200154141561296657816000806129358761289f565b81526020019081526020016000206006018281548110151561295357fe5b9060005260206000200181905550612973565b80806001019150506128c4565b505b505050565b60e060405190810160405280606081526020016060815260200160608152602001600063ffffffff1681526020016129b0612b69565b81525090565b61014060405190810160405280600015158152602001600073ffffffffffffffffffffffffffffffffffffffff168152602001606081526020016060815260200160608152602001600015158152602001612a0f612b69565b8152602001606081525090565b828054600181600116156101000203166002900490600052602060002090601f016020900481019282601f10612a5d57805160ff1916838001178555612a8b565b82800160010185558215612a8b579182015b82811115612a8a578251825591602001919060010190612a6f565b5b509050612a989190612b9a565b5090565b828054600181600116156101000203166002900490600052602060002090601f016020900481019282601f10612add57805160ff1916838001178555612b0b565b82800160010185558215612b0b579182015b82811115612b0a578251825591602001919060010190612aef565b5b509050612b189190612b9a565b5090565b828054828255906000526020600020908101928215612b58579160200282015b82811115612b57578251825591602001919060010190612b3c565b5b509050612b659190612b9a565b5090565b606060405190810160405280600063ffffffff168152602001600063ffffffff168152602001600060ff1681525090565b612bbc91905b80821115612bb8576000816000905550600101612ba0565b5090565b9056fea165627a7a72305820d7cd04ce72fa44d92b0a611adbfad81bb11b47ffc351f525bd6547a21cdea9370029",
  "source": "//pragma solidity ^0.4.17;\npragma solidity ^0.5.0;\n\n//pragma experimental ABIEncoderV2;\n\ncontract chainMaps {\n\n    struct geoLatLng {\n        uint32 lat;\n        uint32 lng;\n        uint8 zoom;\n    }\n\n    struct place {\n        string title;\n        string desc;\n        string imageLink;\n        uint32 category;\n        geoLatLng position;\n    }\n\n    struct account {\n        bool exist;\n        address owner;\n        string ownerIdname;\n        string desc;\n        string extraData;\n        bool clusterize;\n        geoLatLng position;\n        uint256[] placesIndex; // array de timestamps (hora de escritura)\n        mapping( uint256 => place )  places; // o key vai ser un timestamp (hora de escritura)\n    }\n\n\n    mapping(bytes32 => account)  accounts;\n\n    event AccountSubmit(\n      address indexed owner,\n      string accountIdName,\n      string result\n    );\n\n    event PlaceSubmit(\n      address owner,\n      string accountIdName,\n      uint256 placeTtIndex,\n      string result\n    );\n\n\n    constructor() public { owner = msg.sender; }\n    address payable owner;\n\n    // This contract only defines a modifier but does not use\n    // it: it will be used in derived contracts.\n    // The function body is inserted where the special symbol\n    // `_;` in the definition of a modifier appears.\n    // This means that if the owner calls this function, the\n    // function is executed and otherwise, an exception is\n    // thrown.\n    modifier onlyOwner {\n        require(\n            msg.sender == owner,\n            \"Only owner can call this function.\"\n        );\n        _;\n    }\n\n\n    function setAccount( string memory accountIdName, string memory desc, string memory extraData, bool clusterize, uint32 lat, uint32 lng, uint8 zoom ) public payable {\n\n        if( accountExist(accountIdName) ) {\n\n          if( isOwner(accountIdName) ) {\n            accounts[accountHash(accountIdName)].ownerIdname = accountIdName;\n            accounts[accountHash(accountIdName)].desc = desc;\n            accounts[accountHash(accountIdName)].extraData = extraData;\n            accounts[accountHash(accountIdName)].clusterize = clusterize;\n            accounts[accountHash(accountIdName)].position.lat = lat;\n            accounts[accountHash(accountIdName)].position.lng = lng;\n            accounts[accountHash(accountIdName)].position.zoom = zoom;\n\n            emit AccountSubmit( msg.sender , accountIdName, 'ACCOUNT_UPDATED');\n          }\n          else{\n            emit AccountSubmit( msg.sender , accountIdName, 'ACCOUNT_NOT_OWNER');\n          }\n\n        }\n        else {\n            account memory acc;\n\n            acc.exist = true;\n            acc.position = geoLatLng({\n                lat: lat,\n                lng: lng,\n                zoom: zoom\n            });\n            acc.owner = msg.sender;\n            acc.desc = desc;\n            acc.extraData = extraData;\n            acc.clusterize = clusterize;\n\n            accounts[accountHash(accountIdName)] = acc;\n            emit AccountSubmit( msg.sender , accountIdName, 'ACCOUNT_CREATED');\n        }\n    }\n\n\n    function getAccount(string memory accountIdName) public\n        returns (\n            string memory owner,\n            string memory desc,\n            string memory extraData,\n            bool,\n            uint32 lat,\n            uint32 lng,\n            uint8 zoom,\n            uint placesNumber\n        )  {\n\n        if( accountExist(accountIdName) ) {\n            account memory ac;\n            ac = accounts[accountHash(accountIdName)];\n            return (\n                ac.ownerIdname,\n                ac.desc,\n                ac.extraData,\n                ac.clusterize,\n                ac.position.lat,\n                ac.position.lng,\n                ac.position.zoom,\n                ac.placesIndex.length\n            );\n        }\n    }\n\n    function setPlace( string memory accountIdName, uint256 ttIndex, string memory title, string memory desc, string memory imageLink, uint32 category, uint32 lat, uint32 lng, uint8 zoom  ) public payable returns (uint256) {\n        uint256 ret;\n\n\n\n        if( accountExist(accountIdName) ) {\n\n            if( isOwner(accountIdName) ) {\n                bytes32 accountIdNameHash;\n                accountIdNameHash = accountHash(accountIdName);\n\n                place memory pl;\n                pl.title = title;\n                pl.desc = desc;\n                pl.imageLink = imageLink;\n                pl.category = category;\n                pl.position = geoLatLng({\n                        lat: lat,\n                        lng: lng,\n                        zoom: zoom\n                    });\n\n                uint256 n;\n\n                n = now;\n                if( ttIndex == 0 ) { // Create\n\n                    accounts[ accountIdNameHash ].places[n] = pl;\n                    accounts[ accountIdNameHash ].placesIndex.push(n);\n\n                    ret = n;\n                    emit PlaceSubmit( msg.sender, accountIdName, ttIndex, 'PLACE_CREATED');\n                }\n                else { // update\n\n                    replacePlaceTtindex(accountIdName,ttIndex, n);\n                    accounts[ accountIdNameHash ].places[ n ] = pl;\n                    ret = n;\n                    emit PlaceSubmit( msg.sender, accountIdName , n, 'PLACE_UPDATED');\n                }\n\n\n            }\n            else {\n              emit PlaceSubmit( msg.sender, accountIdName, ttIndex, 'ACCOUNT_NOT_OWNER');\n            }\n\n            return ret;\n        }\n\n\n    }\n\n    function replacePlaceTtindex(string memory accountIdName ,uint256 ttIndex, uint256 newTtIndex) private {\n        if( accountExist(accountIdName) ) {\n\n            for (uint i=0; i<accounts[ accountHash(accountIdName) ].placesIndex.length; i++) {\n                if( accounts[ accountHash(accountIdName) ].placesIndex[i] == ttIndex ) {\n                    accounts[ accountHash(accountIdName) ].placesIndex[i] = newTtIndex;\n                    break;\n                }\n\n            }\n\n\n        }\n    }\n\n\n    function getPlace( string memory accountIdName, uint256 ttIndex ) public\n        returns(\n            string memory title,\n            string memory desc,\n            string memory imageLink,\n            uint32 category,\n            uint32 lat,\n            uint32 lng,\n            uint8 zoom\n            ) {\n        if( accountExist(accountIdName) ) {\n            place memory pl;\n            pl = accounts[accountHash(accountIdName)].places[ttIndex];\n\n            return (\n                pl.title,\n                pl.desc,\n                pl.imageLink,\n                pl.category,\n                pl.position.lat,\n                pl.position.lng,\n                pl.position.zoom\n            );\n        }\n    }\n\n    function deletePlace( string memory accountIdName, uint256 ttIndex ) public payable {\n        if( accountExist(accountIdName) ) {\n            if( isOwner(accountIdName) ) {\n                for (uint i=0; i<accounts[ accountHash(accountIdName) ].placesIndex.length; i++) {\n                    if( accounts[ accountHash(accountIdName) ].placesIndex[i] == ttIndex ) {\n                        delete accounts[ accountHash(accountIdName) ].placesIndex[i];\n                    }\n\n                }\n            }\n\n        }\n    }\n\n    /*\n    function listPlaces( string memory accountIdName ) public\n        returns(\n            string[] memory title,\n            string[] memory desc,\n            string[] memory imageLink,\n            uint32[] memory lat,\n            uint32[] memory lng,\n            uint8[] memory zoom\n            ) {\n\n        string[] memory title_s;\n        string[] memory desc_s;\n        string[] memory imageLink_s;\n        uint32[] memory lat_s;\n        uint32[] memory lng_s;\n        uint8[] memory zoom_s;\n\n        if( accountExist(accountIdName) ) {\n\n            account memory acc;\n            acc = accounts[ accountHash(accountIdName) ];\n            place memory pl;\n\n            uint placesIndexLength = acc.placesIndex.length;\n            for (uint i=0; i<placesIndexLength; i++) {\n                pl = acc.places[i];\n                title_s[i] = pl.title ;\n                desc_s[i] = pl.desc ;\n                imageLink_s[i] = pl.imageLink ;\n                lat_s[i] = pl.position.lat ;\n                lng_s[i] = pl.position.lng ;\n                zoom_s[i] =  pl.position.zoom ;\n            }\n\n            return (\n                title_s,\n                desc_s,\n                imageLink_s,\n                lat_s,\n                lng_s,\n                zoom_s\n            );\n\n        }\n\n    }*/\n\n    function listPlaceIndex( string memory accountIdName ) public returns( uint256[] memory placesIndex ) {\n        if( accountExist(accountIdName) ) {\n            return accounts[ accountHash(accountIdName) ].placesIndex;\n        }\n    }\n\n    function accountHash( string memory accountIdName ) public returns (bytes32) {\n        return keccak256( bytes(accountIdName) );\n    }\n\n    function accountExist(string memory accountIdName) public returns (bool) {\n        bytes32 accountIdNameHash;\n        accountIdNameHash = accountHash(accountIdName);\n\n        return (accounts[accountHash(accountIdName)].exist == true );\n    }\n\n\n    function isOwner( string memory accountIdName ) public returns (bool){\n        bytes32 accountIdNameHash;\n        accountIdNameHash = accountHash(accountIdName);\n\n        return (msg.sender == accounts[accountHash(accountIdName)].owner);\n    }\n\n    function addressIsOwner( address owner,  string memory accountIdName ) public returns (bool){\n      bytes32 accountIdNameHash;\n      accountIdNameHash = accountHash(accountIdName);\n\n      return (owner == accounts[accountHash(accountIdName)].owner);\n    }\n\n\n\n    function withdraw() external onlyOwner {\n        owner.transfer(address(this).balance);\n    }\n\n\n\n}\n",
  "sourcePath": "/home/pablinho/desarrollo/chainMaps/contracts/chainMaps.sol",
  "compiler": {
    "name": "solc",
    "version": "0.5.0+commit.1d4f565a.Emscripten.clang"
  },
  "schemaVersion": "3.0.0",
  "updatedAt": "2019-02-17T15:19:30.056Z",
  "devdoc": {
    "methods": {}
  },
  "userdoc": {
    "methods": {}
  }
}